:020000040000fa
:080000000002040000000000f2
:020000040000fa
:04000800a20400004e
:020000040000fa
:04000c00d00400001c
:020000040000fa
:040010008804000060
:020000040000fa
:04001400c60400001e
:020000040000fa
:04001800bc04000024
:020000040000fa
:04001c008804000054
:020000040000fa
:040020008804000050
:020000040000fa
:04002400880400004c
:020000040000fa
:040028008804000048
:020000040000fa
:04002c008804000044
:020000040000fa
:040030008804000040
:020000040000fa
:04003400fa020000cc
:020000040000fa
:040038006804000058
:020000040000fa
:04003c008804000034
:020000040000fa
:040040008804000030
:020000040000fa
:040044000c030000a9
:020000040000fa
:040048008804000028
:020000040000fa
:04004c008804000024
:020000040000fa
:040050008804000020
:020000040000fa
:04005400860300001f
:020000040000fa
:04005800560300004b
:020000040000fa
:04005c008804000014
:020000040000fa
:040060007004000028
:020000040000fa
:04006400880400000c
:020000040000fa
:040068008804000008
:020000040000fa
:04006c008804000004
:020000040000fa
:040070008804000000
:020000040000fa
:0400740088040000fc
:020000040000fa
:0400780088040000f8
:020000040000fa
:04007c0088040000f4
:020000040000fa
:0400800088040000f0
:020000040000fa
:0400840088040000ec
:020000040000fa
:0400880078040000f8
:020000040000fa
:04008c0088040000e4
:020000040000fa
:0400900088040000e0
:020000040000fa
:0400940088040000dc
:020000040000fa
:0400980088040000d8
:020000040000fa
:04009c0088040000d4
:020000040000fa
:0400a0001004000048
:020000040000fa
:0400a4006e030000e7
:020000040000fa
:0400a80088040000c8
:020000040000fa
:0400ac0088040000c4
:020000040000fa
:0400b00088040000c0
:020000040000fa
:0400b4001e03000027
:020000040000fa
:0400b80080040000c0
:020000040000fa
:0400bc0088040000b4
:020000040000fa
:0400c00088040000b0
:020000040000fa
:0400c40088040000ac
:020000040000fa
:0400c80088040000a8
:020000040000fa
:0400cc0088040000a4
:020000040000fa
:0400d00088040000a0
:020000040000fa
:0400d400880400009c
:020000040000fa
:0400d8008804000098
:020000040000fa
:0400dc008804000094
:020000040000fa
:0400e0008804000090
:020000040000fa
:0400e400880400008c
:020000040000fa
:0400e8008804000088
:020000040000fa
:0400ec008804000084
:020000040000fa
:0400f0008804000080
:020000040000fa
:0400f400880400007c
:020000040000fa
:0400f8008804000078
:020000040000fa
:0400fc008804000074
:020000040000fa
:04010000880400006f
:020000040000fa
:04010400880400006b
:020000040000fa
:040108008804000067
:020000040000fa
:04010c008804000063
:020000040000fa
:04011000880400005f
:020000040000fa
:04011400880400005b
:020000040000fa
:040118008804000057
:020000040000fa
:04011c008804000053
:020000040000fa
:04012000880400004f
:020000040000fa
:04012400880400004b
:020000040000fa
:040128008804000047
:020000040000fa
:04012c00f8030000d4
:020000040000fa
:04013000880400003f
:020000040000fa
:04013400880400003b
:020000040000fa
:040138008804000037
:020000040000fa
:04013c008804000033
:020000040000fa
:04014000880400002f
:020000040000fa
:04014400880400002b
:020000040000fa
:040148008804000027
:020000040000fa
:04014c008804000023
:020000040000fa
:04015000880400001f
:020000040000fa
:04015400880400001b
:020000040000fa
:040158008804000017
:020000040000fa
:04015c008804000013
:020000040000fa
:04016000880400000f
:020000040000fa
:04016400880400000b
:020000040000fa
:040168008804000007
:020000040000fa
:04016c008804000003
:020000040000fa
:0401700088040000ff
:020000040000fa
:0401740088040000fb
:020000040000fa
:0401780088040000f7
:020000040000fa
:04017c0088040000f3
:020000040000fa
:0401800088040000ef
:020000040000fa
:0401840088040000eb
:020000040000fa
:0401880088040000e7
:020000040000fa
:04018c0088040000e3
:020000040000fa
:0401900088040000df
:020000040000fa
:0401940088040000db
:020000040000fa
:0401980088040000d7
:020000040000fa
:04019c0088040000d3
:020000040000fa
:0401a00088040000cf
:020000040000fa
:0401a40088040000cb
:020000040000fa
:0401a80088040000c7
:020000040000fa
:0401ac0088040000c3
:020000040000fa
:0401b00088040000bf
:020000040000fa
:0401b40088040000bb
:020000040000fa
:0401b80088040000b7
:020000040000fa
:0401bc0088040000b3
:020000040000fa
:0401c00088040000af
:020000040000fa
:0401c40088040000ab
:020000040000fa
:0401c80088040000a7
:020000040000fa
:0401cc0088040000a3
:020000040000fa
:0401d000880400009f
:020000040000fa
:0401d400880400009b
:020000040000fa
:0401d8008804000097
:020000040000fa
:0401dc008804000093
:020000040000fa
:0401e000880400008f
:020000040000fa
:0401e400880400008b
:020000040000fa
:0401e8008804000087
:020000040000fa
:0401ec008804000083
:020000040000fa
:0401f000880400007f
:020000040000fa
:0401f400880400007b
:020000040000fa
:0401f8008804000077
:020000040000fa
:0401fc008804000073
:020000040000fa
:04020000880400006e
:020000040000fa
:04020400880400006a
:020000040000fa
:040208008804000066
:020000040000fa
:04020c008804000062
:020000040000fa
:04021000880400005e
:020000040000fa
:04021400880400005a
:020000040000fa
:040218008804000056
:020000040000fa
:04021c008804000052
:020000040000fa
:04022000880400004e
:020000040000fa
:04022400880400004a
:020000040000fa
:040228008804000046
:020000040000fa
:04022c008804000042
:020000040000fa
:04023000880400003e
:020000040000fa
:04023400880400003a
:020000040000fa
:040238008804000036
:020000040000fa
:04023c008804000032
:020000040000fa
:04024000880400002e
:020000040000fa
:04024400880400002a
:020000040000fa
:040248008804000026
:020000040000fa
:04024c008804000022
:020000040000fa
:04025000880400001e
:020000040000fa
:04025400880400001a
:020000040000fa
:040258008804000016
:020000040000fa
:04025c008804000012
:020000040000fa
:04026000880400000e
:020000040000fa
:04026400880400000a
:020000040000fa
:040268008804000006
:020000040000fa
:04026c008804000002
:020000040000fa
:0402700088040000fe
:020000040000fa
:0402740088040000fa
:020000040000fa
:0402780088040000f6
:020000040000fa
:04027c0088040000f2
:020000040000fa
:0402800088040000ee
:020000040000fa
:0402840088040000ea
:020000040000fa
:0402880088040000e6
:020000040000fa
:04028c0088040000e2
:020000040000fa
:0402900088040000de
:020000040000fa
:0402940088040000da
:020000040000fa
:0402980088040000d6
:020000040000fa
:04029c0088040000d2
:020000040000fa
:0402a00088040000ce
:020000040000fa
:0402a40088040000ca
:020000040000fa
:0402a80088040000c6
:020000040000fa
:0402ac0088040000c2
:020000040000fa
:0402b00088040000be
:020000040000fa
:0402b40088040000ba
:020000040000fa
:0402b80088040000b6
:020000040000fa
:0402bc0088040000b2
:020000040000fa
:0402c00088040000ae
:020000040000fa
:0402c40088040000aa
:020000040000fa
:0402c80088040000a6
:020000040000fa
:0402cc0088040000a2
:020000040000fa
:0402d000880400009e
:020000040000fa
:0402d400880400009a
:020000040000fa
:0402d8008804000096
:020000040000fa
:0402dc008804000092
:020000040000fa
:0402e000880400008e
:020000040000fa
:0402e400880400008a
:020000040000fa
:0402e8008804000086
:020000040000fa
:0402ec008804000082
:020000040000fa
:0402f000880400007e
:020000040000fa
:0402f400880400007a
:020000040000fa
:0402f8008804000076
:020000040000fa
:0402fc008804000072
:020000040000fa
:040300004c040000a9
:020000040000fa
:0403040018040000d9
:020000040000fa
:040308008804000065
:020000040000fa
:04030c008804000061
:020000040000fa
:04031000880400005d
:020000040000fa
:100400000f4021000eff24000e01880000000000b4
:10041000000020000000e000020032000001200087
:100420002002880014000700620107000000e000bd
:1004300003003a008038220001002000020037004b
:100440000000200001002000810f70000100320038
:100450000f000700000020000000e0000200320052
:100460000000020000000000ae0e020000000000cc
:100470000040da000000fe00a01920000000e000ab
:1004800002003200002020009001880000000600d9
:10049000a1028800800478000000eb001f003700f4
:1004a000e284440054a0b4009905ba00e2844400f8
:1004b00054a0b4009906ba00e284440054a0b400e9
:1004c0000006eb00476fde00fd07b200ae018800ba
:1004d000636ce10003003a000ad801000000eb0061
:1004e0000e003700606ce10008003a00004deb00a0
:1004f0000a05e800020039003420ec000af0a000f0
:100500008b05e900f9ff3e00040037006168e10057
:10051000010032000086eb000b00070019c7ba008b
:100520000e04e0001905ba0003003a000a00e000da
:10053000dbff3a0000000600fe07b200ae028800b2
:100540008a047800f5ff37000cd0a300e20f4d00bd
:100550001c003b0089027800354dba000a05e8000e
:10056000020039003420ec000af0a0008b05e900fd
:100570000f003200254dba000a05e80002003900dc
:100580003420ec000af0a0008b05e90008003200de
:100590000c00e0000600320015cdba000a05e800a4
:1005a000020039003420ec000af0a0008b05e900bd
:1005b0008984e80054a0b4000b00e000e2ff3a0098
:1005c000000006009902ba00055d78008b05e9007d
:1005d000f7ff3200c82ade00055d78008b05e900d0
:1005e000f3ff32000c00e000f1ff320019ddba0029
:1005f000eeff3700801f78000000fa006080800066
:100600000000e800608088000068a9000080fa000f
:100610004f00780000400600801f78000000fa00bc
:10062000508080000000e8005080880000e8a900a9
:100630000080fa004f00780000400600809fbe0056
:100640000000fa000468a9005020800061006000ea
:100650000000e000010032000a04a90050208000e0
:10066000620060000000e0000d0032000021800008
:10067000620060000000e000080032002009210054
:1006800051c0b300014878005009210011c0b300e7
:100690000148780010c0b30020f0b7000a24a90078
:1006a0000080fa004f00be0000400600809fbe00a0
:1006b0000000fa000000000011118000001020006e
:1006c000008060000000e000fbff32000188a9000c
:1006d0000080fa004f00be0000400600809fbe0070
:1006e0000000fa00000000009111800000102000be
:1006f000008060000000e000fbff320003e8a9007a
:100700000080fa004f00be0000400600809fbe003f
:10071000821f78000000fa0030118000708188008c
:100720007181800050052000808f500015003a0034
:10073000d0808000e10f500012003a00c08080009d
:100740000000e0000f003a0020002000d080880068
:10075000c08080007181800001017800f10f2000cd
:10076000010161008000400020082100008040005d
:1007700002087800c08080000000e800c080880087
:1007800016003700d0808000e20f500013003a00be
:10079000c08080007181800001017800f10f20008d
:1007a000010161008000400020082100008040001d
:1007b00002087800c08080000000e800c080880047
:1007c000c0808000e80f500004003a0010c0b30061
:1007d00022f0b7001830ef001a30ef000168a900ce
:1007e0000080fa004f0178004f00be000040060074
:1007f000801f78000000fa00101180006400600083
:100800000000e0000200320010002000d0808800cc
:100810000828a9000080fa004f0078000040060078
:100820000000fa0003c8a9000080fa00004006009a
:10083000809fbe003200f8003400f8001000200055
:10084000a00188000020200000d0fe000000fa0077
:100850000128800000802000008060000000e0008f
:1008600007003200a02880004400de00708188006c
:10087000b02880008081880010c0b30021f0b7004c
:1008800016e8a9000080fa003400f9003200f900ef
:100890004f00be00004006003200f8003400f800af
:1008a000881f780018002000a80188000820200078
:1008b00008d0fe004f0478000000fa0016c8a90016
:1008c0002c8ea8002caea8002ccea800ffff37006d
:1008d0000000fa000088a9000080fa00004006002d
:1008e0000000fa0001c8a9000080fa0000400600dc
:1008f0000000fa000308a9000080fa00004006008a
:100900000000fa000488a9000080fa0000400600f8
:100910003200f8003400f800881f7800180020002a
:10092000a80188000820200008d0fe004f047800ad
:100930000000fa002c8ea8002caea8002ccea80037
:10094000ffff37003200f8003400f800881f7800fd
:1009500018002000a80188000820200008d0fe0010
:100960004f0478000000fa002c8ea8002caea800de
:100970002ccea800ffff37000000fa002c8ea80044
:100980002caea8002ccea800ffff37000000fa0014
:100990002c8ea8002caea8002ccea800ffff37009c
:1009a0000000fa002c8ea8002caea8002ccea800c7
:1009b000ffff3700000005001400200092033700fd
:1009c000f4ff2f00900337000001be002400070051
:1009d0000470a70003f0a1006509b1001600320001
:1009e0000d0035006828e10006003500f0ff2f00fb
:1009f000f1ff27000300e00013003b000100280086
:100a00000000050000004000818048008502e900e8
:100a1000fcff3a0008003700f88f420002003c005b
:100a20008000eb00000005008100d1000080d300b1
:100a30008502e800fcff3a000300e00002003b00f2
:100a400060001000e0801800000006004f89de0002
:100a500082017800870337006011b80095033700e2
:100a6000c70ade00f107b200f50fb200080032003d
:100a7000e1cf4200020032000170a0002400050016
:100a8000810f7000010032000408050044000500d9
:100a9000810f700002003a00140005008502e90091
:100aa0000000400081c04800fcff3b000170a00036
:100ab0002400050007f82700078361000638e100dd
:100ac00004003a00f7072000878361008703710064
:100ad00001003a0003f0a200889fbe008a9fbe007a
:100ae0008c9fbe00470ade000480a100c71ade000a
:100af0000580a10007002800078560008785610048
:100b0000f70f20000720e1009e0032000728e100d7
:100b10009c003200010678000400e000b4003200be
:100b2000f7072000878060000170a0000500e0004a
:100b3000c0003200f7072000878161000370a00029
:100b4000050652000f003a000b50e1000b00320086
:100b50000308e10002003a000200e1007e003200da
:100b60000204500083845800040031000001fd009d
:100b70008101fd008402fd008a05fd006044b8008b
:100b8000210037000520e10005003d000001fd00c7
:100b90008101fd008402fd008a05fd00050652006a
:100ba0007a60e100050035000170a1004722dd00f8
:100bb000848070008a807000630037006044b80051
:100bc000ef02660007ff2f00070666000500e00041
:100bd00006003400f08312008714dd000511de00ea
:100be000071bdd00060171008519de007060e10061
:100bf00005003500090478008204780003017800bc
:100c00008001eb00700656000b50e10003003a0033
:100c10000200400083804800040037006004140094
:100c2000e0841c0002005800838058000188a30063
:100c3000060032008100d1000080d3008984d300f7
:100c40000884d3000402e800270037000178a300dd
:100c500025003a000100e000030032008186cf0049
:100c6000698656000a0037008c0020000000e00072
:100c700004003a0009007800880478000004eb00c2
:100c8000700252008086cf000d0646000c06e90077
:100c90007060e100060035008000780009007800ef
:100ca000880478000004eb007006560070025200c1
:100cb0000c00e0000c0034008c08dd00f00316008e
:100cc0000703de00868070000c00dd00074bde00ad
:100cd000060070008c4cdd000743de008684740043
:100ce0000c44dd000c0252006120e10020003500c0
:100cf000610160000700280087816400f7ff27007a
:100d000087836400070374000300e00006003200dc
:100d100082037300040032000000e800e080480015
:100d20000188a3000e003a00f70f20000720e10021
:100d30004a003d000170a1004722dd0081007200e1
:100d40008a8070000000be004f06be004f05be0046
:100d50004f04be00000006006000b800faff370034
:100d60008100d1000080d3000402e800eeff3700cc
:100d70000401780089017400a10107008a807000d5
:100d8000f1ff3700f7010700070278000001fd00be
:100d90008101fd00f30107008702780085037200de
:100da0000778a300040032000001fd008101fd006e
:100db00006020700e4ff3700850362000768a3000e
:100dc000080032000b50e10003003200f0ff2f005a
:100dd000f1ff2700dcff37000001fd008101fd006d
:100de000d9ff37000468a300d7ff3200faff3700ad
:100df000f8ff2700888360000b003a000000e00045
:100e000009003a0083036400828373000200320009
:100e10000200be00ccff37000b50e100ceff3a00cd
:100e20000200be00c8ff37001400200081006400eb
:100e30003eff3700f8ff27008883610004003a0076
:100e40000200e00002003a008c007800beff37008c
:100e5000150020008301640039ff370001f82700e6
:100e60000000200081007500b7ff3700889fbe009a
:100e70008a9fbe008c9fbe001b0020000202be00a5
:100e80000586680006002800060666004709de00a1
:100e9000f20fb200820032000243e800800032000c
:100ea000c729de00f30fb2007d0032000343e800e3
:100eb0007b003200f107b2000170a000f507b2001c
:100ec0000570a000c708dd004903de0086807000c1
:100ed0004700dd00c72add004923de00868272005c
:100ee0004722dd00030551000403500085835800ac
:100ef0000300310000004000818048000a05e9003d
:100f00008c1f78008a9fbe00040050008580580026
:100f10000402420085824a000000400081804800af
:100f20000005eb000004be006033b8000406be00fc
:100f30000d48e10056003100110009004dccd800e9
:100f40000c01b8000d02b8008481410060824a00a3
:100f50008283530003045c0084845c0060055d00b0
:100f60000a00e00025003a00800578000d40e1000d
:100f7000490031008800780007007800110009005e
:100f80004d88d8000c01b8000d02b80084814100e2
:100f900060824a006003110083835b0004045c00ec
:100fa000e0845c000900e00021003a004f01be002f
:100fb0000300e0002b003200e3016000070673002d
:100fc0008c81710001003200640070004200de007c
:100fd0004e5edd000c007000c258de0001e0a00093
:100fe00083010700cf017800818071004f06be00a9
:100ff0004f05be004f04be00000006008c83430076
:101000000d044c00e0844c0060054d000000e90038
:101010000a00e000d4ff32008c8343000d044c0032
:10102000e0844c0060054d000000e900ceff370071
:101030000c0343008d834b0060044c00e0844c00a3
:101040000000e9000900e000d8ff32000c03430073
:101050008d834b0060044c00e0844c000000e900ec
:10106000d2ff37004200de004e5edd000c00700053
:10107000c258de0001e0a000cf0178000300e000cc
:10108000daff320060001000e0801800d7ff370060
:10109000f0ff2f00aaff3700f0ff2f00b9ff370045
:1010a0000404be002f010700870678000004fd003d
:1010b0008104fd002b010700078366000678a3006a
:1010c000030032000960a7000800be002c003700b2
:1010d0000d78a300020032000800be00280037008f
:1010e0000778a30026003a0001f0a10009f0a10052
:1010f0000668a30003003200f1ff2700f0ff2f0075
:10110000baff37000d68a300030032000800be00dc
:101110008c807000b5ff37000768a30007003a0015
:101120000648a30003003200f1ff2700f0ff2f0064
:10113000aeff37000d48a300030032006000b80086
:101140008c807000a9ff37000748a300040032001c
:1011500001f82700000020008c807000a3ff3700fa
:10116000760107000004fd008104fd0002057800ff
:10117000720107000802be008a01780059ff37009b
:101180000160a00012022000c281880097ff370092
:101190000100e000120032000500e0001000320003
:1011a000889fbe008a9fbe008c9fbe000006eb0099
:1011b00001f8a3000300320060001000e080180076
:1011c0000cf0a00005f8a30003003200600212003a
:1011d000e0821a000cf0a2008005eb0041ff37000e
:1011e0006000b800020005000383680007002800c3
:1011f00007036300470ade000480a100c71ade006f
:101200000580a100f70f20000720e1004200320016
:101210000728e10040003200889fbe008a9fbe0080
:101220008c1f7800f107b200f307b2000400e00061
:10123000640032000170a0000500e0006800320088
:101240000370a00085054200eb07b1000204b8005e
:101250000302b8008484440060854a00020ab80092
:10126000848444000a854a00030ab8000405450046
:10127000040033000804d0008984d2000a85d2001b
:101280008b05e9006158e1003d00350002102000a7
:10129000090161000308200089816100f70720002f
:1012a0008783640008867300c84cde00c853dd00e5
:1012b000878474004855de000300e0000600320019
:1012c00082037600040032008904e80060054d00c6
:1012d0000a88a3000c003a00f70f20000758e1002d
:1012e00044003d000a70a100c75ddd000a8575005d
:1012f0008a007300090078004f0678004f05be0091
:101300004f04be00000006000a05d1008984d30006
:101310008b05e800f0ff3700881f7800060478008e
:1013200090000700070278000001fd008101fd0028
:101330008c00070087027800850372000778a300fd
:10134000050032000001fd008101fd009f00070043
:101350004f04780000000600850372000748a300d0
:1013600003003200f0ff2f00f1ff2700f8ff3700e5
:101370000000200001f8270088807000f4ff37008b
:10138000880178004848dd00808171004848de000f
:10139000c850dd0001007000c850de00060478006f
:1013a0000b0178001600070088807000d2ff37001c
:1013b0000500e00005003200170020003a00070099
:1013c0009dff370081037000f9ff3a008600780026
:1013d0004f0678004f05be004f04be000000050018
:1013e00083037100f9ff3200270020002e00070060
:1013f00094ff370001f8270086807000f4ff370063
:101400000100e00026003200610111007810e100c7
:1014100023003c006022b8007010e1000400350099
:1014200080027800010078008000eb00700151001c
:101430000200e0000900340070031100062add00fc
:10144000822ade008603dd00878272000200de0051
:10145000860bdd00070070008208de0084817100c9
:10146000f4ff2700048262008481710004002800d8
:10147000848262006102600005f0a60000000600a0
:1014800004827100070032000000e800e08048009c
:10149000000006000002be006000b800efff370049
:1014a0006000b80000000600889fbe000004eb004a
:1014b0006138e10016003a000100e00008003a003f
:1014c000c800de004800dd00880020000100e000c8
:1014d00003003a00c800de004800dd006804440054
:1014e0008184cf00e9845400060034008908dd00bf
:1014f000f08314008703de00878070000900dd00a0
:1015000009044400610214004f04be0000000600fc
:101510000300e00008003a00c811de004811dd00b9
:10152000880020000300e00003003a00c811de003c
:101530004811dd00680444008384cf00e98454002e
:10154000060034008919dd00f08314008713de00e3
:10155000878171000911dd0009044400e1021400d3
:10156000e9ff37002700200001f0a7001700200046
:10157000470bde00f60fb200040032000643e8001d
:101580000a0032004702b3000000060001037800a1
:10159000f607b2000603700002003a000703b3002a
:1015a000000006008702b300000006000103780077
:1015b000f607b20006037000020032000770a000b8
:1015c000000006000760a000000006000478a300e9
:1015d000040032000578a300030032000168a30074
:1015e00001003a000200be000160a00000000600f9
:1015f00081017000270032008002eb0001f8a30097
:101600000300320060001000e08018001500200088
:10161000f40720000202420020003400f7032000fb
:101620008703600006042000000363000208200016
:10163000000161004700de00c909dd000080710083
:10164000c708de000600e0000800320087037100d2
:10165000060032001000b0000180b0000188a30035
:1016600002003200c108de000402e800f107b20007
:10167000f30f20000320e10003003d004722dd00be
:10168000810072002900370001f827000000eb00fc
:10169000260037006000b800000006006802120053
:1016a0007f20e100020034006000b8001f00370016
:1016b0006011b8007020e10004003500800178005e
:1016c000010078008000eb00700252000400e0008e
:1016d00009003400f00312000719dd008419de0050
:1016e0000703dd00868171000400de00070bdd00ca
:1016f000060070008408de00f7ff27008383630084
:10170000870371000600280003036300070032000e
:101710000700e00003003a006101600002817300ed
:10172000020032001000b0000180b0000500a600e9
:101730000000060001f0a000000006004f0ade00d5
:101740004709de00f107b200f20fb2000b003200d1
:10175000f207b1000170a000c708dd00c901de007a
:10176000838070004700dd000400a6000000060032
:1017700060001000e080180000000600810f70007b
:1017800001003a00000006008182cf000500e00061
:1017900010003e008082cf00ee8242007028e100ff
:1017a0000400390007003e00800078000000eb00d4
:1017b0000e003700708312008600de000500dd0099
:1017c0000a003700708352008600dd000000eb0045
:1017d00006003700e28252008508dd0070831200a7
:1017e0000603de00868070000500dd007507b0008e
:1017f0000501ea000400a6000000060060001000d9
:10180000e080180000000600889fbe008a9fbe008e
:10181000841f78007c0007004f007800110033001f
:10182000f0ff2f00838f6c0006003b00040565006d
:101830000a00a7000800370009f0a60010002000e9
:1018400008003700820f5400838f5c0003003900ca
:101850001000200001003e000000200009f0a70059
:101860000000ea004f05be004f04be000000e0008b
:1018700000000600881f7800030478000300e000e1
:1018800007003d0060001000e080180060011900b2
:10189000e081190002003b0001f02d000300370039
:1018a0000400070008f0a70001f0a0004f04780032
:1018b00000000600889fbe008a9fbe000082700064
:1018c0000402710004827100260032000004be0090
:1018d0000200be006011b8006b09200095022000d4
:1018e0000182cf000a0039000541b1000082cf001b
:1018f000070039000541b1000982cf00040039001a
:101900000541b1000882cf00010039000541b10056
:1019100005425200120032000a003b008281710031
:10192000610164008100d1000080d3008984d3006c
:101930000884d3008b05e8000442e800f7ff3a0072
:10194000070037000804440089844c000000480068
:10195000818048008b05e9000442e900f9ff3a0064
:10196000030007004f05be004f04be000000060044
:1019700081002000618055000b003d000b0020001d
:1019800061fe2f000100e1001d0034008281710022
:10199000610164008904d1000884d3000000e800dc
:1019a000faff3a007100200061006400030070003b
:1019b000020060000900320061044400e0844c0031
:1019c0000988a500050032008b05e8006808e100e1
:1019d00002003a008904d1000884d300f20f2000ed
:1019e0000258e10005003d00c75ddd00f907b200c7
:1019f0008980750008007800000006000bf82700b9
:101a00008b007800000005000004be0014fc0700f5
:101a10000003be000405be000200be0010fc07006b
:081a2000844f75000000060070
:020000040000fa
:101a280020200000202000005b64000073500000ac
:101a380049430000333300004556000020430000ae
:101a4800414e00002d4c0000494e0000205300007c
:101a5800746100007274000065720000204b000081
:101a68006974000020540000657300007469000068
:101a78006e6700005d0000002d2000004c6f000024
:101a8800636100006c200000506f00007465000066
:101a98006e740000696f00006d65000074650000d9
:101aa80072200000566f00006c740000616700002f
:101ab800653a0000200000002d2000004c6f000057
:101ac800636100006c200000546500006d70000028
:101ad800657200006174000075720000653a0000cc
:101ae800200000002d2000004d4c00005839000057
:101af8003036000031340000204900005220000038
:101b0800546500006d7000002e2000003a2000008f
:101b1800004900006e760000616c000069640000f6
:101b280020740000656d0000702e0000002d00007c
:101b380020530000454e0000542000005061000072
:101b4800636b00006574000020670000656e00008c
:101b580065720000617400006564000021200000c7
:101b6800002a00002a2a000020520000454d0000eb
:101b78004f54000045200000434100004e20000063
:101b88004d45000053530000414700004520000028
:101b980049440000203d000020300000780000008b
:101ba800205200004543000045490000564500000a
:101bb800442000002a2a00002a0000005265000084
:101bc8006d6f000074650000205000006f74000005
:101bd800205600006f6c000074610000676500000b
:101be8003a20000000520000656d00006f7400008c
:101bf80065200000546500006d70000065720000eb
:101c08006174000075720000653a00002000000051
:101c1800526500006d6f00007465000020530000dd
:101c280077690000746300006820000053740000a6
:101c38006174000075730000005300005733000002
:101c48003a2000004f4600004620000000530000e4
:101c5800573300003a2000004f4e000000530000a8
:101c6800573200003a2000004f460000462000008e
:101c780000530000573200003a2000004f4e000089
:101c880000530000573100003a2000004f46000082
:101c98004620000000530000573100003a200000a1
:101ca8004f4e0000002a00002a2a0000205200009f
:101cb800454d00004f540000452000004c490000ed
:101cc8004e2000004d4500005353000041470000de
:101cd8004520000049440000203d0000200000008d
:101ce8002a2a00002a200000524500004d4f00001b
:101cf8005445000020530000454e000054200000c9
:101d08004d450000535300004147000045200000a6
:101d18005245000043450000495600004544000074
:101d2800202a00002a2a000000520000656d0000e9
:101d38006f74000065200000506f000074200000e0
:101d4800566f00006c74000061670000653a00007f
:041d58000000000087
:020000040000fa
:101d5c000000fa0040060700090407007805070098
:101d6c001702070076070700b805070026d0bf004a
:101d7c00e14f500002003a00f00507002100370047
:101d8c00d9050700000000005171800000082000f8
:101d9c000080600000f0a7000000ea000000e900ed
:101dac004f00de008040780052718000001020004f
:101dbc000000610000f0a7000000ea000000e9004c
:101dcc004f00de000040780000c070008080fb00f7
:101ddc0052718000002020000000610000f0a7007c
:101dec000000ea000000e9004f00de000100700076
:101dfc000000e000e4ff3a002c8ea9002caea900f4
:101e0c002ccea900ce06070026d0bf00e14f500013
:101e1c0003003a00de050700110707000200370037
:101e2c007d0307002c0707000c30ef000100370082
:101e3c000000000026d0bf000004e0000c003a00b7
:101e4c002009210010407800e54f500005003a00b1
:101e5c0020092100af0807002009210061c0b30050
:101e6c0001487800b10307000c30ef00f1ff370098
:101e7c0026d0bf00e14f5000edff3a0000000000fb
:101e8c0060808000e30f5000fdff34000c30ef0049
:101e9c00b2020700e7ff37000200fa00004f78009b
:101eac0000000000911180000020200000806000e4
:101ebc000000e000fbff3a001e00fb00a0118800b0
:101ecc000080fa00000006000200fa00000f780003
:101edc00040037001e007800104078001e0fe80048
:101eec00edff07001e007800104078000004e000b1
:101efc00f8ff3a000080fa00000006001600fa0015
:101f0c00881f7800720147000089be0018c0b3001a
:101f1c00720047006011b80090009000100078002b
:101f2c00a2fa07000000e000010035000044eb00bd
:101f3c000804e00008003200d0c2b300d6ff07004e
:101f4c0072004700900090001000780001f0a20091
:101f5c00720147000089be0072004700900090009b
:101f6c001000780095fa0700000f78001e0078002a
:101f7c00cf80de00b2fa0700720247000001be00fb
:101f8c001400780094009000c7fa070002002000ab
:101f9c00832c240091fc07000200200003f0230096
:101fac00cafa070085fa07000e81e80000097800dc
:101fbc000e80e8009000780030062000808f5000e2
:101fcc00040034001e0fe8008000eb000e80e800d7
:101fdc00010878001e0078000000e00003003a00c1
:101fec0000c3b300acff0700310037008000eb00ea
:101ffc0064004700010878001a0037009e00780042
:10200c00a000200000017800110009008200d80017
:10201c008000fd00004078000043b0008040780054
:10202c006400470010007800660040000000470084
:10203c000148780064004700100078008000e80038
:10204c0064004700010878001e01780070662600c5
:10205c000090b900c288de004f90de000080500076
:10206c00000f78001e0078000000e000e3ff3c0049
:10207c000b00370064004700100078008000e90076
:10208c0064004700010878006400470010007800e5
:10209c006600400000004700104078007eff0700fb
:1020ac0064004700100078000000e000f1ff3c00e5
:1020bc00e0c2b30078ff07000e80e8001001780042
:1020cc00706626000090b900c288de004f90de00da
:1020dc0000805000004078000043b0006eff070005
:1020ec000e80e80090007800706626000089b90028
:1020fc004299de004f88de0000005100ea00b90072
:10210c0000805000004078000043b00062ff0700e0
:10211c004f0478000080fa00000006000000fa006e
:10212c000000000091118000001020000080600071
:10213c000000e000fbff3200a0002000a01188008e
:10214c000000000091118000001020000080600051
:10215c000000e000fbff3200d0002000a01188003e
:10216c000080fa00000006000000fa0000000000e9
:10217c002110800000002400008060000000e000be
:10218c00fbff3a00001080007f0060000000e000c0
:10219c00f7ff3a000080fa00000006000200fa0087
:1021ac00803e2000000f7800efff07000002a8001f
:1021bc000000000000108000610060000000e000e2
:1021cc00040032001e0fe9001e0078000000e00041
:1021dc00f8ff3a001e00780000f0a7000000ea00ab
:1021ec000000ea004f00de00004078000080fa009a
:1021fc00000006000200fa00803e2000000f78006c
:10220c00d9ff07000042a800000000000010800069
:10221c00640060000000e000040032001e0fe900c2
:10222c001e0078000000e000f8ff3a001e00780065
:10223c0000f0a7000000ea000000ea004f00de00fa
:10224c00004078000080fa00000006000200fa004e
:10225c00803e2000000f7800c3ff07000022a8007a
:10226c000000000000108000620060000000e00030
:10227c00040032001e0fe9001e0078000000e00090
:10228c00f8ff3a001e00780000f0a7000000ea00fa
:10229c000000ea004f00de00004078000080fa00e9
:1022ac00000006000400fa008e80e80080487800e8
:1022bc00803e2000000f7800abff07000e80e80086
:1022cc00104078000080fb006010880000000000c7
:1022dc002110800000002400008060000000e0005d
:1022ec00040032001e0fe9001e0078000000e00020
:1022fc00f7ff3a001e0078000000e00005003200f5
:10230c002110800000002800008060000000e00028
:10231c00020032000040eb000100370010c0b30097
:10232c000080fa00000006000400fa008e80e8002d
:10233c0080487800803e2000000f78000062a800e2
:10234c000000000000108000680060000000e00049
:10235c00040032001e0fe9001e0078000000e000af
:10236c00f8ff3a0004c2a9000e80e8001040780083
:10237c000004e0000200320000a2a90001003700b6
:10238c0000a2a8000082a800803e2000000f780068
:10239c000000000000108000700060000000e000f1
:1023ac00040032001e0fe9001e0078000000e0005f
:1023bc00f8ff3a0070108000004078000080fa00ae
:1023cc00000006000600fa0074ff07000004a200db
:1023dc000004e0000400320086ff0700000020002b
:1023ec0091382c004800370040cbb300adff0700fc
:1023fc000004a2000004e000040032007dff07008e
:10240c000000200091382c003f00370070c0b30052
:10241c00a4ff07000004a2000004e0000400320046
:10242c0074ff07000000200091382c0036003700a4
:10243c0086ff07000004a2000004e0000400320044
:10244c006cff07000000200091382c002e00370094
:10245c0050cbb30093ff07000004a2000004e0007f
:10246c000400320063ff07000000200091382c00ac
:10247c002500370010c0b300abff0700004f7800f9
:10248c0010c0b300a8ff07008e00e8008048780059
:10249c000040eb00a4ff07008e80e8008048780025
:1024ac0054ff07000e00e800104078000080fb008d
:1024bc00c800dd001e80fb00810070006400470036
:1024cc000108780064004700100078000000e0006c
:1024dc0003003a000000200091382c000a0037005d
:1024ec0064004700100078008000eb0057f90700eb
:1024fc00a2702d0033ca230038fb070032332900a9
:10250c008338240068f907000080fa0000000600f8
:10251c000200fa0001e2a900a000200064060700f6
:10252c00150ea900152ea800b17080000020200007
:10253c00008060000000e000020032002000070074
:10254c001d0037000040eb00004f78000c003700f6
:10255c00190ea9005000200055060700190ea800fe
:10256c005000200052060700b170800000202000af
:10257c00008060000000e00005003a001e4fe800fb
:10258c001e407800e84f5000f1ff36000100370084
:10259c0000000000152ea900190ea800192ea90084
:1025ac005000200042060700192ea8005000200001
:1025bc003f060700020007000080fa00000006003a
:1025cc000000fa0001e2a900150ea800152ea800c3
:1025dc001b0ea8001b2ea800b0182000501088005d
:1025ec0001e2a800a0002000310607000080fa00dc
:1025fc00000006000000fa0000a2a9000082a8005a
:10260c000000000000108000700060000000e0007e
:10261c00fcff3a000080fa00000006000000fa00ff
:10262c0000a2a8000082a80000000000001080009a
:10263c00700060000000e000fcff3a000080fa002f
:10264c00000006000400fa008e80e8008008780084
:10265c0000c5b300004f78000e80e8001000780031
:10266c000000e0000a003200e10f50000a003a00be
:10267c008040eb000e00e80001487800c7fe070020
:10268c000004a2000004e00005003a000700370037
:10269c0010c0b300180037000040eb0016003700e4
:1026ac00d4fe07000040eb00130037001e407800fa
:1026bc00fcfe07000004a2000004e000030032004e
:1026cc00ccfe07000040eb000b0037000e00e800ca
:1026dc0010407800f3fe07000004a2000004e000a4
:1026ec0003003200c3fe07000040eb00020037007d
:1026fc00c0fe070010c0b3000080fa000000060006
:10270c000a00fa006601470000497800680047009b
:10271c000108780000c5b300004f780011c5b30064
:10272c000e00e80001487800660047001040780071
:10273c007f406000804078000174a0000e80e800ab
:10274c000148780095fe07000004a2000004e00098
:10275c0003003200a7fe07000040eb0036003700f4
:10276c001e407800cffe07000004a2000004e00029
:10277c00030032009ffe07000040eb002e003700e4
:10278c000e80e80010407800c6fe07000004a2008e
:10279c000004e0000300320096fe07000040eb004e
:1027ac00250037007dfe07000004a2000004e000b5
:1027bc00030032008ffe07000040eb001e003700c4
:1027cc000e00e80010407800b6fe07000004a200de
:1027dc000004e0000300320086fe07000040eb001e
:1027ec001500370010c0b300cffe0700e300470010
:1027fc00804878000040eb00cbfe0700e400470067
:10280c00804878007bfe070063004700104078008a
:10281c000080fb00c800dd00640047001040780019
:10282c000080fb00810070006800470010007800f9
:10283c000108780010c0b3000080fa000000060008
:10284c000800fa0064014700004978006600470060
:10285c000108780000c5b300004f78006400470001
:10286c00104078007f406000804078000164a00038
:10287c000e00e80001487800660047001000780060
:10288c00c800de000e80e8000148780066004700b2
:10289c009000780063004700014878003ffe070075
:1028ac000004a2000004e0000300320051fe070007
:1028bc000040eb00270037001e40780079fe07002f
:1028cc000004a2000004e0000300320049fe0700ef
:1028dc000040eb001f0037000e00e80010407800ad
:1028ec0070fe07000004a2000004e00003003200a8
:1028fc0040fe07000040eb00160037000e80e80099
:10290c001040780067fe07000004a2000004e000fd
:10291c000300320037fe07000040eb000d003700cb
:10292c0063004700104078005efe07000004a20020
:10293c000004e000030032002efe07000040eb0014
:10294c00040037002bfe070010c0b3004d05070034
:10295c0010c0b3000080fa00000006000400fa006a
:10296c00881f7800507180004700de0061406000d5
:10297c0000c0ea00614060000080fb006100600064
:10298c004400dd00617180000140a1000100700075
:10299c0060718800507180004800de00614060006a
:1029ac0000c0ea00614060000080fb006100600034
:1029bc004500dd00617180000150a1000100700034
:1029cc0060718800507180004900de006140600039
:1029dc0000c0ea00614060000080fb006100600004
:1029ec004600dd00617180000160a10001007000f3
:1029fc006071880030012000ec03070030808000fb
:102a0c0010808800400620002905070010808000f7
:102a1c00cf80de000af8070002002000030a240021
:102a2c00eef9070002002000035824000cf90700ff
:102a3c00e0808800f18088003342a80010c0b30009
:102a4c001005070040d128001ffd0700b3fd07004b
:102a5c0000d428001cfd0700e0808000f18080007d
:102a6c0026fd0700adfd07003342a90010c0b300de
:102a7c000405070020012000cc03070030808000f3
:102a8c002080880040062000090507002080800077
:102a9c000017b100cf80de00e9f7070012582900bb
:102aac00f3172400eef80700e0808800f18088001e
:102abc003342a80010c0b300f204070000d628006f
:102acc0001fd0700e0808000f18080000bfd070015
:102adc0092fd07003342a90010c0b300e9040700bf
:102aec0038fe0700008fbe003342a80010c0b300b0
:102afc00e404070018c0b3000200280083382c003f
:102b0c001e0078009e009000aaf707000000e0006d
:102b1c0001003c000044eb000804e0000600320019
:102b2c0060d72800e8fc07001e0078009e0090008b
:102b3c00f2fc070002003700d0d82800e2fc0700a6
:102b4c0076fd0700507180004900de006140600096
:102b5c000080fb00610060000000e00002003a0011
:102b6c0001002400010037008000eb005071800050
:102b7c004800de00614060000080fb0061006000e6
:102b8c000000e00002003a000000220001003700c3
:102b9c000000eb0081007000507180004700de00e7
:102bac00614060000080fb00610060000000e000fc
:102bbc0002003a0000002100010037000000eb0089
:102bcc00010070001180800000807000b028880027
:102bdc00208080004400dd00a02888000c05a8009f
:102bec0000f42100b20407000c05a9003342a80030
:102bfc0010c0b300a3040700b0d92800b2fc070032
:102c0c001e0078009e009000bcfc07004f0478006a
:102c1c000080fa00000006000000fa00889fbe0049
:102c2c0000502400c03788003caea800d14480007e
:102c3c00f0ff28008080600000002600010070007a
:102c4c00d044880016e8a90036e8a800d1448000da
:102c5c00f08f2f0080806000006020000100700069
:102c6c00d044880016c8a90036c8a800a0818000ee
:102c7c00b1818000020020000310240057f90700e6
:102c8c000004be0090818000cf80de006cf707004e
:102c9c000001be000800be0050f90700d2cc2c0089
:102cac00c3f423004df9070044f707000000780037
:102cbc0040288800a0818000b181800002002000a3
:102ccc000310240045f907000004be009081800029
:102cdc00cf80de005af707000001be000800be00de
:102cec003ef90700a299290093f923003bf907004c
:102cfc0032f7070000007800202888000105a800a2
:102d0c0000e5a9000128800080ff2f0000806000f2
:102d1c006000b300002888000165a80001e5a80048
:102d2c004f04be000080fa00000006000000fa000c
:102d3c0020d0bf00e14f500003003a0023000700f1
:102d4c002070ef000c00370021d0bf00e14f500085
:102d5c0004003a00240107002170ef001a30ef0044
:102d6c000500370022d0bf00e14f500002003a00ae
:102d7c00ad0007002270ef000080fa000000060092
:102d8c000000fa000028ef000228ef000428ef00f2
:102d9c000628ef000828ef0001438000f0f82f0010
:102dac008080600000062000010070000043880055
:102dbc0021428000f0ff28000080600000e0a000ad
:102dcc00204288000080fa00000006000000fa0093
:102ddc00889fbe003342a80050db28003afc070055
:102dec00b2848000c384800000f02f00010020001a
:102dfc0002027800030178008001780081007800dd
:102e0c0003006200810061008104780000047800f6
:102e1c000800be004809dd004800de00000071001b
:102e2c00c808de00004078000000fb0060818800cc
:102e3c0061818000000f20000080600050818800bc
:102e4c00508180004400de000003b00050818800f7
:102e5c00608180006f0060000003b000408188003a
:102e6c0050818000004078000bfc070040818000fe
:102e7c000040780008fc0700b0848000c18480000a
:102e8c00004078000000fb006081880061818000b8
:102e9c00000f20000080600050818800508180006d
:102eac004400de000003b000508188006081800087
:102ebc006f0060000003b0004081880050818000ea
:102ecc0000407800f4fb070040818000004078004f
:102edc00f1fb070040dd2800fbfb07008ffc07001f
:102eec0020de2800f8fb070011858000208580007b
:102efc004800dd0001007000108088001080800008
:102f0c00cf80de00cef6070002002000030a24006a
:102f1c00b2f807000200200003582400d0f7070085
:102f2c00e0808800f1808800e0808000f1808000e3
:102f3c00f2fb070079fc070070df2800e2fb0700ba
:102f4c00f1848000008580004800dd0001007000e5
:102f5c0070818800708180000017b100cf80de0086
:102f6c00b7f6070012582900f3172400bcf7070026
:102f7c00e0808800f1808800e0808000f180800093
:102f8c00defb070065fc0700c0e02800cefb070055
:102f9c0062fc0700d0848000640060000000e00048
:102fac0003003a0010e22800c7fb070002003700bc
:102fbc00b0e22800c4fb070058fc0700d084800056
:102fcc00620060000000e00003003a0030e32800db
:102fdc00bdfb070002003700d0e32800bafb070056
:102fec004efc0700d0848000610060000000e0000f
:102ffc0003003a0050e42800b3fb0700020037003e
:10300c00f0e42800b0fb070044fc07002c8ea8005d
:10301c00a0c0b3009b0307002c8ea9004f04be0078
:10302c000080fa00000006000000fa003342a800fd
:10303c0070e52800a4fb0700208480000040780085
:10304c008000fb00f003200000806000608188009d
:10305c0061818000000f200000806000508188009a
:10306c00508180004400de000003b00050818800d5
:10307c00608180006f0060000003b0004081880018
:10308c00508180000040780083fb07004081800065
:10309c000040780080fb070040dd28008afb070019
:1030ac001efc070020de280087fb070071848000cf
:1030bc00608480004800dd000100700010808800f2
:1030cc0010808000cf80de005df60700020020003b
:1030dc00030a240041f807000200200003582400d2
:1030ec005ff70700e0808800f1808800e0808000b6
:1030fc00f180800081fb070008fc070070df2800ce
:10310c0071fb070051848000408480004800dd0082
:10311c000100700070818800708180000017b10080
:10312c00cf80de0046f6070012582900f317240062
:10313c004bf70700e0808800f1808800e080800079
:10314c00f18080006dfb0700f4fb0700c0e0280055
:10315c005dfb0700f1fb070030848000610060001c
:10316c000000e00003003a0010e2280056fb0700c4
:10317c0002003700b0e2280053fb0700e7fb070012
:10318c0030848000620060000000e00003003a0020
:10319c0030e328004cfb070002003700d0e3280086
:1031ac0049fb0700ddfb07003084800064006000f1
:1031bc000000e00003003a0050e4280042fb070046
:1031cc0002003700f0e428003ffb0700d3fb0700a8
:1031dc002caea800a0c0b3002a0307002caea90097
:1031ec000080fa00000006000000fa003342a8003c
:1031fc0040e7280034fb0700c8fb070090e92800d3
:10320c0031fb070081818000f0ff2000008060000e
:10321c001080880010808000cf80de0008f6070048
:10322c0002002000030a2400ecf707000200200033
:10323c00035824000af70700e0808800f18088001a
:10324c00e0808000f18080002cfb0700b3fb0700be
:10325c0070df28001cfb0700708180000017b10094
:10326c00cf80de00f6f5070012582900f317240072
:10327c00fbf60700e0808800f1808800e080800089
:10328c00f18080001dfb0700a4fb0700c0e02800b4
:10329c000dfb0700a1fb07008181800000002400ca
:1032ac00008060004e80de000000e00003003a0069
:1032bc0010e2280004fb070002003700b0e22800ef
:1032cc0001fb070095fb07008181800000002200b4
:1032dc00008060004d80de000000e00003003a003a
:1032ec0030e32800f8fa070002003700d0e328008a
:1032fc00f5fa070089fb070081818000000021009e
:10330c00008060004c80de000000e00003003a000a
:10331c0050e42800ecfa070002003700f0e4280023
:10332c00e9fa07007dfb07002ccea800a0c0b30073
:10333c00d40207002ccea9000080fa000000060081
:10334c000200fa00288ea90028aea90028cea900f8
:10335c0086cea80086eea80078cea80078eea8004d
:10336c00b1718000f0c32f0000806000b071880044
:10337c000c30ef000a30ef001830ef001a30ef007d
:10338c000000eb00000f7800070037001e007800eb
:10339c008000400020082100008040008000eb00ed
:1033ac00010878001e0fe8001e007800e70f50009f
:1033bc00f6ff340005e1a9000421a90004c1a9000d
:1033cc002108800000032000010070002008880004
:1033dc00608929001008880001428000f0ff280055
:1033ec008080600000002300010070000042880013
:1033fc000068a9002068a80011e1a9001021a9000b
:10340c0010c1a90081088000000320000100700099
:10341c00800888000621ef00a06120006008880069
:10342c0011428000f0ff28000080600000d0a00056
:10343c001042880000e8a90020e8a80011e1a800cb
:10344c0005e1a8000080fa00000006000000fa0068
:10345c005171800000082000008060000000e00036
:10346c000a003200517180000010200000806000c2
:10347c000000e000050032005171800000202000a7
:10348c00008060000000e00013003a00e0c1b300cf
:10349c007c02070051718000000820000080600051
:1034ac000000e0000a003200517180000010200082
:1034bc00008060000000e0000500320051718000c7
:1034cc0000202000008060000000e00002003a00b4
:1034dc002670ef000200370010c0b30026f0b700d2
:1034ec000080fa00000006000000fa000830ef002f
:1034fc000d0037002c8ea9002caea9002ccea900f3
:10350c00f0c0b3005f0207002c8ea8002caea80000
:10351c002ccea800c0c0b3005a0207004080800027
:10352c000000e8004080880040808000e50f5000db
:10353c00f0ff34000080fa00000006000000fa00e2
:10354c002c8ea8002caea9002ccea90040c1b30033
:10355c004c0207002caea80040c1b3004902070082
:10356c002ccea80020c3b300460207002ccea90025
:10357c0040c1b300430207002caea90040c1b30008
:10358c00400207002c8ea9000080fa000000060003
:10359c000000fa000134800000fc2f0080806000e5
:1035ac009003200001007000003488003caea9009c
:1035bc00d1448000f0ff28008080600000002500ce
:1035cc0001007000d044880016e8a90036e8a80075
:1035dc00d1448000f08f2f008080600000602000bc
:1035ec0001007000d044880016c8a90036c8a80095
:1035fc0090818000cf80de0011f507000002be0034
:10360c00a0818000b18180000001be000400be00da
:10361c00f2f60700e9f40700000078000000e9006a
:10362c00202888000145a8000105a80000e5a90094
:10363c000128800080ff2f00008060006000b30034
:10364c000028880001e5a8001625ef001425ef00de
:10365c000080fa00000006000000fa00213a800009
:10366c00f0f32f0000806000203a8800213a80009f
:10367c0000fe2f0000806000203a880060022000cd
:10368c00303a880040a7a9000080fa00000006002c
:10369c000000fa00792ea9007d2ea900642ea90045
:1036ac00640ea80000062000a0368800e000200070
:1036bc001034880001208000f08f2f000080600003
:1036cc0000a0a00000208800000000000120800065
:1036dc00000e20008080600000082000808f5000c9
:1036ec00faff3a000004a900700420008020880032
:1036fc00202d200090208800f0012c003020880024
:10370c0001cba90001aba80001588000f0fc2f00f0
:10371c00008060000050a000005888000158800014
:10372c00c0ff2f000080600000588800600420005b
:10373c001058880070002000705888002044200029
:10374c0060588800002021002058880000202100ab
:10375c003058880030e4a800802180003000b3008d
:10376c008021880001eba80000022000005988008d
:10377c0000442000605988007000200070598800b7
:10378c0020022000105988000020210020598800b8
:10379c00002021003059880021eba8003120800046
:1037ac00f0ff210000806000302088000004a80099
:1037bc00c1208000c0ff2f0000806000c020880066
:1037cc0000fe2f0080218800004622000022880085
:1037dc00802180000030a000802188000022800021
:1037ec000030a100002288000121800000ff2f0082
:1037fc00008060000000a000002188001404a800d4
:10380c000004a90031e4a9002a24ef005021800013
:10381c004021880040218000102188001021800068
:10382c000021880001208000f08f2f0000806000b4
:10383c00002088000000000001208000000e200005
:10384c00008060000000e000fbff3a000c24a800a0
:10385c002468a8000080fa00000006000000fa00ae
:10386c00c0482000009088000000eb0010908800f9
:10387c006000200020908800507180004700de001e
:10388c00614060000080fb006100600000f0a70058
:10389c000000ea000000e9004f00de0051718000da
:1038ac00c808de00e1c060008180fb00e1806000a0
:1038bc000100e00002003a00210020000100370066
:1038cc008000eb0080807000507180004900de00a9
:1038dc00614060000080fb00610060000000e000bf
:1038ec0002003a0040002000010037000000eb000d
:1038fc00010070003090880020808000409088008b
:10390c001080800050908800000000000000000033
:10391c00000000003064a80000000000000000005f
:10392c0000000000000000008021800068006000a2
:10393c000000e000fcff3a000080fa0000000600e6
:10394c000000fa002023ef002223ef002423ef00d5
:10395c003223ef002623ef0001198000f0cf2f0057
:10396c0000806000001988002043a80080c0b300cc
:10397c0024e3b70021198000f00f2e0000806000b6
:10398c0000b0a000201988002143a80021e3a80062
:10399c00790ea9007d0ea8006009200044010700e3
:1039ac002023a8000080fa00000006000200fa00a4
:1039bc00000f78000630ef000830ef0020003700d1
:1039cc001e00780000407800f043b2008080fb00bd
:1039dc00f0032000008060004219800001fc2f00e1
:1039ec0081006100010070004019880001a8a90045
:1039fc002023a900000000000000000000000000cf
:103a0c0000000000000000000000000000000000aa
:103a1c000140800000002200008060000000e000f7
:103a2c00fbff320030808000011880000100400054
:103a3c0030808800408080000000e80040808800d2
:103a4c0040808000e30f5000ddff340030808000a8
:103a5c004280de00308088000080fa000000060002
:103a6c000000fa000eeea900010ea90000eea9005c
:103a7c00050ea80004eea80001348000f00f2c0005
:103a8c00008060000080a000003488003ccea900bb
:103a9c0080042000203688003d0ea8002002a900da
:103aac000111800090ff2f00008060000011880041
:103abc0020a2a9002062a9007020200040118800db
:103acc0023a2a80023e2a9002188a80021e2a800d3
:103adc000080fa00000006000000fa000eeea900bb
:103aec0000eea900050ea90004eea8008004200039
:103afc00203688003d0ea8002002a900011180008c
:103b0c0090ff2f00008060000011880020a2a90007
:103b1c002062a90070202000401188001111800043
:103b2c00f0f32f0000806000101188002168a800bd
:103b3c002828a80021e2a8000080fa000000060056
:103b4c000000fa00148ea9009133800000fc2f00b5
:103b5c00008060003000b300903388003002a90070
:103b6c008111800090ff2f00008060008011880080
:103b7c0030a2a9003062a90000042000c011880006
:103b8c0033a2a90033e2a80023e8a80031e2a80080
:103b9c000080fa00000006000000fa00000000009f
:103bac001111800000102000008060000000e00077
:103bbc00fbff32000000000011118000008020008b
:103bcc00008060000000e000fbff3a002342a800e8
:103bdc002362a8002422ef00000000005005200002
:103bec00201188000e30ef007080800061006000b2
:103bfc00708088000080eb008080880080808000ce
:103c0c0061006000808088000000000011118000bd
:103c1c0000102000008060000000e000fbff32007c
:103c2c0020342000a200070080808000c700dd0047
:103c3c00708080004600dd008100700030022000a2
:103c4c000100700090808800908080002011880016
:103c5c00203420009600070090808000b0808800ff
:103c6c00507180004700de00614060000080fb0066
:103c7c006100600000f0a7000000ea000000e9000d
:103c8c004f00de0051718000c808de00e1c060000a
:103c9c008180fb00e18060000100e00002003a003e
:103cac0021002000010037008000eb0080807000b4
:103cbc00507180004900de00614060000080fb0014
:103ccc00610060000000e00002003a0040002000ab
:103cdc00010037000000eb0001007000a08088009c
:103cec00a080800057000700000000001111800028
:103cfc0000102000008060000000e000fbff32009c
:103d0c00a080800020118800208080004800de0008
:103d1c00a0808800a08080004a00070000000000fe
:103d2c001111800000102000008060000000e000f5
:103d3c00fbff3200203420005d000700a0808000d3
:103d4c002011880021808000f00f2000008060008e
:103d5c00a0808800a08080003a00070000000000ce
:103d6c001111800000102000008060000000e000b5
:103d7c00fbff3200203420004d000700a0808000a3
:103d8c0020118800108080004800de00a080880090
:103d9c00a08080002b0007000000000011118000a3
:103dac0000102000008060000000e000fbff3200eb
:103dbc00203420003e000700a080800020118800e5
:103dcc0011808000f00f200000806000a08088002f
:103ddc00a08080001b000700000000001111800073
:103dec0000102000008060000000e000fbff3200ab
:103dfc00203420002e000700a080800020118800b5
:103e0c00b08080008080ea00f00f2000008060000d
:103e1c00b08088000000000011118000001020000c
:103e2c00008060000000e000fbff32002034200026
:103e3c001f000700b0808000201188000080fa006d
:103e4c00000006000200fa00000f7800b08080002d
:103e5c001e004000b0808800b1808000f00f200070
:103e6c00808f500005003400b1808000f00f2000de
:103e7c00008060000000e800b08088000080fa003c
:103e8c00000006000200fa00004f78000a30ef0034
:103e9c00000000001e80fb0051808000810f50004c
:103eac00fcff3c000a30ef000080fa000000060026
:103ebc000400fa008e80e800800878000000eb0017
:103ecc00000f7800030037002700090000000000f5
:103edc001e0fe8000e80e800100078009e007800ad
:103eec00808f5000f8ff35000080fa0000000600bb
:103efc000e00fa00881f7800e80147008089be0098
:103f0c006c004700020878000000eb00000f7800fe
:103f1c008000eb000e80e800010878008000eb00c8
:103f2c0064004700010878008000eb006600470041
:103f3c000108780018c0b300680047006011b80091
:103f4c00900090001000780098f207000000e0004c
:103f5c00010035000044eb000804e0000d003200c5
:103f6c009e0078006c0047001000780001004000b3
:103f7c00d1c2b300014878001e0fe800680047006a
:103f8c00900090001000780001f0a200680147003a
:103f9c000089be008000eb00640047000108780037
:103fac000d003700680047000200200003122400b7
:103fbc009000900010007800a9f3070068014700fa
:103fcc000089be0064004700100078008000e80003
:103fdc00640047000108780018c0b300680047006f
:103fec0002002000031224009000900010007800c2
:103ffc0070f207000000e00001003d000044eb00ff
:10400c000804e000e7ff3a00110020000e80e800f1
:10401c0001087800380037006800470090009000d5
:10402c001000780065f2070066014700000978006f
:10403c006600470010007800cf80de0080f2070099
:10404c00680247000001be00140078009400900044
:10405c0095f20700680147000089be009e007800b9
:10406c006c0047001000780001004000e60047009b
:10407c0091007800814078000143b000014878003d
:10408c001e0fe80064004700100078000000e000fc
:10409c0007003a009e0078006c0047001000780082
:1040ac0001004000e1c2b300014878001e0fe80097
:1040bc0068004700020020000312240090009000ca
:1040cc001000780045f40700680147000089be0025
:1040dc0064004700100078008000e900640047008d
:1040ec00010878000e80e800100078008000e800dd
:1040fc000e80e800010878000e80e80010007800bf
:10410c00e50f5000c4ff34004f0478000080fa0023
:10411c00000006000a00fa00881f7800e80047003b
:10412c00800878008000eb000e80e8000108780021
:10413c000000eb00000f78006000b800640347003b
:10414c00008bbe0068004700100078006300400040
:10415c00104078000080fb00c400dd00002021002e
:10416c000080400010007800e10060000e80e80044
:10417c00010878000e80e800100078000000e000d4
:10418c0021003a00680047001000780063004000ee
:10419c00104078000080fb00c400dd0000202100ee
:1041ac000080400090007800c0ff2100008060007b
:1041bc004200de008000eb0068014700120178002d
:1041cc00640141000089be006800470010007800bf
:1041dc0041c0b3000080e800014878006800470047
:1041ec001000780063004000104078000080fb0055
:1041fc00c400dd0000202100008040001000780089
:10420c00620f6000770037006800470010007800ec
:10421c0063004000104078000080fb00c400dd000b
:10422c000020210000804000100078006103b800dd
:10423c00c0ff21000100200006047800070378006d
:10424c00800378008100780007006400810063001f
:10425c0081027800000278000400be00640247006e
:10426c00008abe00640047009000900010007800a7
:10427c00c000dd0000002000680247001402780036
:10428c0064024200008abe006800470010007800fb
:10429c0063004000104078000080fb004400dd000b
:1042ac008080e80000202100008040001000780091
:1042bc006102b800f0ff2000010020000403780028
:1042cc000502780080027800810078000500630008
:1042dc008100620081017800000178000200be00bc
:1042ec00640147000089be00680047001000780098
:1042fc0064004000100178009001900064004700b9
:10430c0010027800900290004628dd00ca20de00e2
:10431c00810070004620dd000200400083804800d0
:10432c006801470012017800640141000089be0059
:10433c0068004700100078006300400010407800cf
:10434c000080fb004400dd00e40040000020210060
:10435c0000804000100078004a00de008000eb0076
:10436c00640147000089be00680047001000780017
:10437c006400400010017800900190006400470038
:10438c0090009000100078000200400083804800ec
:10439c006801470012017800640141000089be00e9
:1043ac00680047001000780031c0b3000080e800be
:1043bc000148780068004700100078006300400056
:1043cc00104078000080fb004400dd00e400400059
:1043dc000020210000804000900078000020200088
:1043ec00008f60001e007800e10f500006003a00bc
:1043fc00680047001000780021c0b3000000e800fe
:10440c0001487800990037006800470010007800d8
:10441c0011c0b3000000e8000148780068004700b4
:10442c001000780063004000104078000080fb0012
:10443c004400dd00e6004000002021000080400028
:10444c0010007800004078008080fb006800470076
:10445c0010007800680040000108780068004700f0
:10446c001000780063004000104078000080fb00d2
:10447c004400dd00e60040000020210000804000e8
:10448c00100078004800de00004078008080fb00bf
:10449c0068004700100078006a00400001087800ae
:1044ac00680047001000780063004000104078005e
:1044bc000080fb004400dd00e800400000202100eb
:1044cc000080400010007800004078008080fb00e5
:1044dc0068004700100078006c004000010878006c
:1044ec00680047001000780063004000104078001e
:1044fc000080fb004400dd00e800400000202100ab
:10450c0000804000100078004800de000040780079
:10451c008080fb0068004700100078006e004000af
:10452c000108780068004700100078006300400024
:10453c00104078000080fb004400dd00ea004000e1
:10454c00002021000080400010007800004078001e
:10455c008080fb006800470010007800700040006d
:10456c0001087800680047001000780063004000e4
:10457c00104078000080fb004400dd00ea004000a1
:10458c000020210000804000100078004800de0070
:10459c00004078008080fb00680047001000780025
:1045ac007200400001087800680047001000780095
:1045bc0063004000104078000080fb004400dd00e8
:1045cc00ec0040000020210000804000100078002a
:1045dc00004078008080fb006800470010007800e5
:1045ec007400400001087800680047001000780053
:1045fc0063004000104078000080fb004400dd00a8
:10460c00ec004000002021000080400010007800e9
:10461c004800de00004078008080fb006800470006
:10462c001000780076004000010878006800470010
:10463c001000780063004000104078000080fb0000
:10464c004400dd00e4004000002021000080400018
:10465c001000780000407800ef40600068004700d0
:10466c00100078007800400001487800680047008e
:10467c001000780063004000104078000300070031
:10468c004f0478000080fa00000006000200fa00d7
:10469c00004f780000218000620060000000e00004
:1046ac00050032001e407800e14f500002003a0035
:1046bc002024a90011003700002180006400600054
:1046cc000000e000050032001e407800e24f500070
:1046dc0002003a002044a9000800370000218000a5
:1046ec00680060000000e000040032001e4078000a
:1046fc00e34f500001003a002064a9000080fa004a
:04470c0000000600a3
:020000040000fa
:104710003a1000007200000080000000001200004b
:1047200000020000800000000010000032000000c5
:10473000800000003210000006000000820000002f
:1047400032007b00141f42003810000002000000fd
:084750008000000000000000e1
:020000040000fa
:020000040005f5
:04573000fbff00007b
:020000040000fa
:020000040005f5
:04573800bdff0000b1
:020000040000fa
:020000040005f5
:045740009fff0000c7
:020000040000fa
:020000040005f5
:04574800feff000060
:020000040000fa
:020000040005f5
:04575000feff000058
:020000040000fa
:020000040005f5
:04577800feff000030
:020000040000fa
:020000040005f5
:04578000f7ff00002f
:00000001FF
